:100000000C94EB050C9408060C9408060C94080656
:100010000C9408060C9408060C9408060C94080628
:100020000C9408060C9408060C94DC1D0C94B01C6F
:100030000C94C3230C9408060C9408060C94080630
:100040000C9408060C9408060C9408060C940806F8
:100050000C9408060C9451230C9408060C94080682
:100060000C9408060C9408060C9408060C940806D8
:100070000C9408060C9408060C9408060C940806C8
:100080000C9408060C9408060C9408060C940806B8
:100090000C9408060C9408060C9408060C940806A8
:1000A0000C9408060C9408060C9408069409990907
:1000B0009E09A309A809AD09B209B709BC09C1097C
:1000C000C6091007E009E309E609E909EC09EF09A7
:1000D000F4090C0AB00AB00AEA0AEA0A350B510B15
:1000E0001A0D7A0D930B710C820C820CD90EDC0E5A
:1000F000DF0EE20EE50EE80EEB0E06110B111511E8
:1001000009110E111311111183139D13C813061435
:1001100048148F149214951498149B149E14A114CF
:10012000A414A714AA14AF14B214B514BA14BF14AB
:10013000C214C51422294929EB2A4929EB2A9129FD
:10014000B429EB2AAF2AC22A8D2B8D2BA02BA02BF2
:10015000962BA02BA02BA02B8D2B8D2B9B2BA02B7C
:10016000A02B9B2B01000100340213500100000062
:100170000100140004641D430158280001001A0006
:1001800016611B6804582C62010008000700060075
:100190000100025401001500090019000100360594
:1001A000010017000A0005000000015401000100D1
:1001B00000002B040000010001000100000001000C
:1001C0000000010001001C000B00110000000154A0
:1001D000010018000D0010000100360501000C00A0
:1001E0000E00360001002842010012000F7137781E
:1001F000055802550100130033743843065828008F
:100200000100010034001350010000000100010052
:10021000010010500100000044003A001E000100DF
:100220000100010045003B001F000100010001002A
:1002300068003C00200001000100010069003D0051
:1002400021000100010001006A003E0022000100BF
:100250000000010001000100000001000000010099
:100260000100010000000100000001006B003F00E0
:1002700023000100000001006C0040002400010088
:10028000010001006D004100250001000100025441
:100290006E0042002600010001002C006F004300A8
:1002A00027000100010001000100010001001050C1
:1002B00001000000010001003502105001000000A3
:1002C00001001E022D0231000100010001001F0289
:1002D0002A002900010001000100200226022F004F
:1002E000010001000100210227023000010001008D
:1002F000010022022F023002000001000100010073
:1003000000000100000001000100010000000100E8
:10031000000001000100240236020100000001007B
:1003200001002B022E0225020100010001002B001A
:100330002D002302010001000100280037022E00D9
:100340000100010001003102330238000100010008
:100350000100010035001050010000000100010003
:10036000010010500100000001000100FB0001002D
:10037000010001000100F700F20001000100F5009A
:100380000100F000F10001000100F4000100F8009C
:10039000F30001000100010001000100FC00010068
:1003A0000000F60001000100000001000000010053
:1003B0000100010000000100000001000100010037
:1003C000500001000000010001002B025100FA0062
:1003D0000100010001002B005200F90001000100A2
:1003E000010028004F00FF00010001000100010092
:1003F0000100010001000100010001000100105096
:1004000001000000010001000100010001000000E6
:1004100001000100010001000100010001000100D4
:100420000100010001000100010001004C004D002D
:1004300001000100010001004E004900010001001F
:10044000010001004A004B00000001000100010012
:100450000000010000000100010001000000010097
:100460000000010001000100BC00010000000100CB
:100470000100AC00AA00A800010001000100AB00CF
:10048000A900AD00010001000100AE00BB000100A9
:10049000010001000100460001000100010001000F
:1004A000A500A600010001000100000029002B00AA
:1004B0003900E100E00000001E00140004001D00EF
:1004C000E30001001F00010016001B0001002C00CA
:1004D00020000100010001000100010021000100D5
:1004E00001000100E2000100220001000100010002
:1004F00000000100010001000000010000000100F7
:1005000001000100000001000000010023000100C3
:1005100001000100000001002400010001000100B1
:10052000010001002500010001000100010001009F
:10053000260001000F00010001002C00270001002F
:100540003300010001000100010001000100010071
:100550000100000001000100010001000100000095
:100560000100010001000100010001000100010083
:100570000100010001000100010001000100010073
:100580000100010001000100010001000100010063
:100590000100010001000100000001000100010054
:1005A0000000010000000100010001000000010046
:1005B0000000010001000100C65C01000000010014
:1005C00001000B5DCA5C0100010001000100C35C79
:1005D000C95C0100010001000100C25CC55C0100B2
:1005E0000100010001000100010001000100010003
:1005F000005C01000100010001000000000000009B
:1006000000000000000000000000000000000000EA
:1006100000000000000000000000000000000000DA
:1006200000000000000000000000000000000000CA
:1006300000000000000000000000000000000000BA
:1006400000000000000000000000000000000000AA
:10065000000000000000000000000000000000009A
:10066000000000000000000000000000000000008A
:10067000000000000000000000000000000000007A
:1006800000000000000000000000000014B1E114B0
:10069000B1E114B1E10EDEF20EDEF20EDEF20EDE9C
:1006A000F20EDEF20EDEF20EDEF29A56FF9A56FFE0
:1006B0009A56FF9A56FF9A56FF000000000000006D
:1006C000000000000000000000000000000000002A
:1006D0000000000014B1E114B1E114B1E114B1E182
:1006E00014B1E10EDEF20EDEF20EDEF20EDEF20EDE
:1006F000DEF29A56FF9A56FF9A56FF9A56FF9A567E
:10070000FF000000000000000000000000000000EA
:1007100000000000000000000000000000000000D9
:100720000000000000000000000000C33DFF55CBAA
:100730009E55CB9E55CB9EC33DFFF3DEEAFFDCC941
:10074000FFDCC9FFDCC914B1E1000000FFDCC9F324
:10075000DEEAF3DEEAFEC6BE000000000000000094
:100760000000000000000000000000000000000089
:1007700000000014B1E114B1E114B1E114B1E114CD
:10078000B1E186FFD59A56FF9A56FFFFDCC9FA9F62
:10079000FF86FFD59A56FF9A56FFFC77FFC33DFFB1
:1007A0000000000000000000000000000000000049
:1007B000000000000000000000000000000055CB19
:1007C0009E55CB9E55CB9E0000000EFFFF0EFFFFF7
:1007D0000EFFFF0EFFFF0000000000000FA6C30F7A
:1007E000A6C31FFFFF000000000000000000000083
:1007F00000000000000000000000000000000000F9
:100800000000000000001FFFFFFC77FF1FFFFF003C
:1008100000000FA6C3FC77FFFC77FFFC77FF0FA655
:10082000C300000000000000000000000000000005
:1008300000000000000000000000000000000000B8
:10084000000000000000000000000000000055CB88
:100850009E55CB9E55CB9EE9DAD90CE1F10CE1F126
:100860000CE1F10CE1F1000000000000FC77FF005A
:10087000CD9B9A56FF000000000000000000000021
:100880000000000000000000000000000000000068
:100890000000000000000000000000000000000058
:1008A00000001FFFFFCDFFFFFA9FFF0000000000C8
:1008B00000CDFFFFFA9FFF0000FF000000000000D6
:1008C0000000000000000000000000000000000028
:1008D0000000000000000000000000000000000018
:1008E0000000000000000000000000000000000008
:1008F00000000000000000000000000000000000F8
:1009000000000000000000000000000000000000E7
:1009100000000000000000000000000000000000D7
:1009200000000000000000000000000000CD9B005F
:10093000000000000000000000CD9B00CD9B00CD1A
:100940009B0000000000000000000000000000000C
:100950000000000000000000000000000001010194
:10096000010101010101020202020202020202036C
:10097000030303030303030404040404040405053C
:1009800005050506060606060707070707080808FF
:1009900008090909090A0A0A0B0B0B0C0C0C0D0DAE
:1009A0000D0E0E0E0F0F0F10101111111212131346
:1009B0001414151516161717181819191A1A1B1BBF
:1009C0001C1D1D1E1E1F202021222223242425261B
:1009D00026272829292A2B2C2D2D2E2F3031323253
:1009E000333435363738393A3B3C3D3E3F4041425F
:1009F000434445464748494A4C4D4E4F5051535445
:100A0000555658595A5B5D5E5F61626465666869F8
:100A10006B6C6D6F7072737577787A7B7D7E808278
:100A2000838587888A8C8E8F91939596989A9C9EC1
:100A3000A0A2A3A5A7A9ABADAFB1B3B5B7BABCBED1
:100A4000C0C2C4C6C9CBCDCFD1D4D6D8DBDDDFE29E
:100A5000E4E7E9EBEEF0F3F5F8FAFDFF0501090232
:100A6000A10185020901A100050919012905150047
:100A70002501950575018102950175038101050127
:100A8000093009311581257F9502750881060938DD
:100A90001581257F950175088106050C0A38021518
:100AA00081257F950175088106C0C005010980A1D7
:100AB0000185031A81002A83001601002603009590
:100AC0000175108100C0050C0901A10185041A01FE
:100AD000002A9C02160100269C02950175108100D7
:100AE000C005010906A1018505050719E029E715DB
:100AF0000025019508750181020507190029EF15E8
:100B000000250195F0750181020508190129059557
:100B10000575019102950175039101C00501090652
:100B2000A101050719E029E71500250195087501C0
:100B300081029501750881010507190029FF15003B
:100B400026FF0095067508810005081901290595FD
:100B50000575019102950175039101C009023B00E1
:100B6000020100A0FA0904000001030101000921AB
:100B7000110100012240000705810308000A090451
:100B80000100010300000009211101000122C00041
:100B90000705820320000A1201100100000008ED81
:100BA000FE071301000102030104033000000016D8
:100BB000034500720067006F0064006F007800203A
:100BC0000045005A00000008035A0053004100008D
:100BD00000040309040011241FBECFEFDAE0DEBFDA
:100BE000CDBF13E0A0E0B1E0E6E0F6E602C005907C
:100BF0000D92A23AB107D9F726E0A2EAB3E001C00C
:100C00001D92A734B207E1F70E941D1F0C94013317
:100C10000C9400004F925F926F927F929F92AF92DE
:100C2000BF92CF92DF92EF92FF920F931F93CF93D9
:100C3000DF9300D000D01F92CDB7DEB7FC0100815A
:100C4000F18083819481892B39F01FEFF11206C066
:100C500091E00F3F19F403C091E001C090E090FDD6
:100C60007CC76F0185E0DE01119601900D928A9597
:100C7000E1F7F601228189819A81222349F00E94BD
:100C80006A25182F682F89819A810E94E42503C064
:100C90000E94B725182F24E5129FF001112436E099
:100CA000F39EE00DF11D1124E00FF11DEE0FFF1F6B
:100CB000EC59FE4F05911491F60182810930FDE552
:100CC0001F0759F00A302DE5120709F446C0023C0F
:100CD0003CE5130709F09DC062C0882309F4BEC03B
:100CE0009091250581E0890F8770987F853020F4E9
:100CF000892B8093250502C09093250580912505B9
:100D00008770EFEF8E9FC00111249595879595957B
:100D100087959927909389008093880090938B0002
:100D200080938A0090938D0080938C0040912505DC
:100D30005091260560912705709128058FE090E07D
:100D40000E9404306091F4057091F5058091F605DC
:100D50009091F7050E94EC1081C0882309F47EC0B1
:100D60008091250583FB222720F991E0922790FBB3
:100D700083F980932505992329F040E060E080E025
:100D80000E94421A40912505509126056091270541
:100D9000709128058FE090E00E9404305FC08823A6
:100DA00009F4DBC690911701809125059F3F59F406
:100DB000109217018F7E8093250540E060E080E06F
:100DC0000E94421A06C09FEF9093170180618093A2
:100DD00025054091250550912605609127057091C4
:100DE00028058FE090E00F900F900F900F900F90DC
:100DF000DF91CF911F910F91FF90EF90DF90CF90F7
:100E0000BF90AF909F907F906F905F904F900C94A9
:100E100004300B30FDE51F0709F5882309F49DC652
:100E200080913C068370846080933C06109206019A
:100E30000F900F900F900F900F90DF91CF911F9117
:100E40000F91FF90EF90DF90CF90BF90AF909F9069
:100E50007F906F905F904F900C94461AF6018281BC
:100E6000882319F1033E2CE51207C1F050F4013E2E
:100E70008CE5180781F0023E9CE51907B1F481E08A
:100E800010C0043EECE51E0759F0053EFCE51F07C7
:100E900061F484E006C01092210505C082E001C023
:100EA00083E0809321050E94171C17FF71C0F60193
:100EB0008281882309F46CC08091FB058093A20392
:100EC0001092FB0580912105813071F048F082304D
:100ED000C1F08430E1F486EE0E94412E88E115C015
:100EE00082EE0E94542E13C083E00E94BB2D88E145
:100EF0000E94542E88E10E94DA2D83E00E94B02DDA
:100F000006C082EE0E94542E87E50E94412E8FE398
:100F10009CE90197F1F700C000005801E894B7F888
:100F20002CE0E22EF12CC5010E2C02C0969587957F
:100F30000A94E2F7282F2F7041F0822F90E02A3098
:100F400010F44D9604C0069702C087E290E00E941C
:100F5000412E94E0E91AF108ECEFEE16EFEFFE06F1
:100F600011F780912105813039F040F0823031F065
:100F7000843051F488E206C08CE204C082EE0E9404
:100F8000DA2D02C00E94412E8091A2038093FB05BE
:100F9000033FFCE51F07C1F180F4083D3CE5130762
:100FA000C9F0093D8CE51807D9F1073D9CE5190703
:100FB000D1F526E241EE61EE10C0053FECE51E07DB
:100FC00059F130F1063F2CE5120769F527E245EEAD
:100FD00066EE03C027E245EE65EEC6010F900F9066
:100FE0000F900F900F90DF91CF911F910F91FF9075
:100FF000EF90DF90CF90BF90AF909F907F906F90D9
:101000005F904F900C941D1C26E241EE60EEE5CF00
:1010100027E245EE64EEE1CF26E241EE62EEDDCF5F
:1010200028E241E0D9CFF6019281992309F44CC11D
:101030001092A3030230FCE51F0708F42FC106310C
:101040002CE5120738F098012A5F3C45273031051E
:1010500008F024C10E9449249093380580933705F5
:101060000F303CE5130709F4CFC008F042C0083048
:101070009CE5190709F4A8C0F0F40430FCE51F074B
:1010800009F490C068F402303CE5130709F486C007
:1010900003301C4509F0DFC0809137058260D9C05C
:1010A00006309CE5190709F487C008F089C08091D3
:1010B00037058860CEC00B30FCE51F0709F495C0EA
:1010C00068F409303CE5130709F482C00A301C4576
:1010D00009F0C1C080913705886080C00D309CE563
:1010E000190709F486C008F087C0809137058D7F05
:1010F000B0C00A3FFCE51F0709F457C050F50231A4
:101100003CE5130709F488C068F400319CE5190731
:1011100009F47EC001311C4509F09DC0809137055E
:101120008F7B97C00431FCE51F0709F487C008F4E2
:1011300079C005311C4509F08EC08091370582FBCE
:10114000222720F991E0922790FB82F990FB83F906
:1011500080C00D3F8CE5180709F452C058F40B3FCE
:10116000ECE51E0729F10C3F1C4509F074C0809185
:10117000380560C00F3F2CE5120709F458C080F114
:1011800001151D4509F067C080913805982F90958D
:1011900091708E7F892B90FB81F94DC0809137052E
:1011A000816057C08091370519C0809138051BC0F8
:1011B0008091380582603FC080913705806149C0C9
:1011C00080913705806245C080913705806441C0B9
:1011D0000E949B2D8091370580683BC0846039C098
:1011E000809138058260816026C0809137058E7FAE
:1011F00030C08091370519C080913705877F29C09D
:10120000809138058D7F17C0809137058F7E21C072
:10121000809137058F7D1DC00E949B2D80913705E1
:101220008F7717C080913705877F8B7F12C08091A1
:1012300038058D7F8E7F809338050DC00E949B2DD1
:101240008091370587FB222720F991E0922790FBB8
:1012500087F980933705609137051091380584E050
:1012600090E00E94F22F612F81E290E00E94F22F25
:101270000F900F900F900F900F90DF91CF911F91D3
:101280000F91FF90EF90DF90CF90BF90AF909F9025
:101290007F906F905F904F900C949B2D8091FB05F9
:1012A0000631FCE51F07A1F58A7A91E009F490E088
:1012B0009093A403882311F065E301C069E285E6F9
:1012C00095E00E9414240EC006311C4509F004C1AB
:1012D0008091A403882309F43EC465E385E695E084
:1012E0000E94EC230F900F900F900F900F90DF91C2
:1012F000CF911F910F91FF90EF90DF90CF90BF9013
:10130000AF909F907F906F905F904F900C942425AA
:101310008272F801E25CFC45E431F10508F081C01D
:10132000EA5AFF4F0C94DA3190913C0681E089270C
:101330007BCD48E95AE16EEA7AE12CC04EEA5AE1E7
:1013400068E97AE127C04AE85AE161E97AE122C016
:1013500041E95AE16AE87AE11DC046E75AE160E8EE
:101360007AE118C040E85AE166E77AE113C042E644
:101370005AE16CE67AE10EC04CE65AE162E67AE1A7
:1013800009C04EE45AE168E57AE104C048E55AE153
:101390006EE47AE10F900F900F900F900F90DF9115
:1013A000CF911F910F91FF90EF90DF90CF90BF9062
:1013B000AF909F907F906F905F904F900C942F1AFA
:1013C00065E082E013C068E086E010C06EE089E06E
:1013D0000DC064E18FE00AC067E185E107C080913C
:1013E0003C068370806620CD62E289E10F900F9009
:1013F0000F900F900F90DF91CF911F910F91FF9061
:10140000EF90DF90CF90BF90AF909F907F906F90C4
:101410005F904F900C94C41A80913C0683708C6846
:1014200003CD0115ECE51E07D1F00E3D1C4509F07A
:1014300053C00F900F900F900F900F90DF91CF91AE
:101440001F910F91FF90EF90DF90CF90BF90AF90E2
:101450009F907F906F905F904F900C945A240E94C1
:101460009B2D0FEF14E32CE0015010402040E1F7DA
:1014700000C00000F89481E08093E00080E2809357
:10148000D8001092C9008FE19EE40197F1F700C0E7
:1014900000001DBA109268001CBC10BE1FBA10924A
:1014A0007A0010926E0010926F00109271001092EC
:1014B00072001092C9001092BC0014B817B81AB884
:1014C0001DB810BA1092BC0015B818B81BB81EB8D9
:1014D00011BA0C94003F41C3F60100811181992398
:1014E00049F0C8010E946A25F82E682FC8010E94A1
:1014F000E42504C0C8010E94B725F82EB8018F2D3D
:101500000E943E0F8C01B82EF601E580E2949FE028
:10151000E922F280F1101092FA058091F8058770A7
:1015200079F0FF2069F080E2800F883048F082E097
:101530000E9441268091F8058770AA24A394811106
:10154000A12C912E92948FE09822892D90E08C30DE
:10155000910508F0CFC2FC01E659FF4F0C94DA3137
:10156000812F807F1F70882311F01295107FFF203C
:10157000B9F0112309F448C280E2800F883010F0DE
:10158000B11006C08091FB05182B1093FB0505C018
:101590008091FA05182B1093FA050E94242534C275
:1015A000802F0E94DA2D112309F4A4C2005E109549
:1015B000083010F0B11006C08091FB05182310937D
:1015C000FB0505C08091FA0518231093FA050E94C7
:1015D000242590C2812F807F1F70803211F01295D8
:1015E000107FBB2021F0F1E0BF16E1F028C0FF2002
:1015F00081F08091FC05EE2051F001E0E01207C07F
:10160000182B181709F476C21093FC0573C2812BAE
:1016100010C0EE2021F021E0E21609F46BC20E9416
:101620001E251FC0FF2041F031E03E1508F462C2C4
:10163000812F0E94D02D5EC2E1105CC212C0FF203B
:1016400019F0EE20A9F3E0C1EE2059F0093309F0BA
:10165000EDC18FEF97EEE3E081509040E040E1F77D
:10166000E3C1812F0E94C52D45C2812F86958695A5
:10167000837019F0813059F03DC2FF2019F0C80184
:10168000937002C080E090E00E940D1A39C2FF20E2
:1016900019F0C801937002C080E090E00E94F71931
:1016A0002FC2FF20F9F0053F51F0063F71F0043FD3
:1016B000A9F48091A5039091A60381600BC080914D
:1016C000A5039091A603826005C08091A503909127
:1016D000A60384609093A6038093A503802F0E94A5
:1016E000E9221EC0053F51F0063F71F0043FA9F406
:1016F0008091A5039091A6038E7F0BC08091A503D6
:101700009091A6038D7F05C08091A5039091A603BB
:101710008B7F9093A6038093A503802F0E942422A1
:101720000E94AD23EDC1812F837009F069C0F110D3
:10173000E5C1902F929596959770990F990F802FEC
:101740008F70482E512C612C712C092E04C0440C32
:10175000551C661C771C0A94D2F704FF12C04FE098
:1017600050E060E070E004C0440F551F661F771F13
:101770009A95D2F7DB01CA0180959095A095B09516
:1017800003C080E090E0DC0116951695412F437070
:10179000423019F1C8F40091FD051091FE05209129
:1017A000FF0530910006413059F084299529A6297A
:1017B000B729BC01CD0160237123822393230AC082
:1017C000402A512A622A732ABC01CD016429752955
:1017D000862997290E947B2691C184299529A629CB
:1017E000B7290091FD051091FE052091FF0530916C
:1017F0000006BC01CD016027712782279327EACF1D
:10180000FF2019F0812F817001C08695882309F48B
:1018100075C1902F929596959770990F990F802F7B
:101820008F70482E512C612C712C092E04C0440C51
:10183000551C661C771C0A94D2F704FF12C04FE0B7
:1018400050E060E070E004C0440F551F661F771F32
:101850009A95D2F7DB01CA0180959095A095B09535
:1018600003C080E090E0DC0116951695412F43708F
:101870004230D9F068F50091F4051091F5052091FA
:10188000F6053091F705413059F084299529A629AC
:10189000B729BC01CD0160237123822393231EC08D
:1018A000402A512A622A732A13C084299529A6291D
:1018B000B7290091F4051091F5052091F6053091B6
:1018C000F705BC01CD01602771278227932706C049
:1018D000BC01CD0164297529862997290E9410260B
:1018E0000DC11F70FF2039F0812F0E945A26802FD2
:1018F0000E94D02D03C1802F0E94C52D812F0E94F0
:101900001C26FCC0802FF2EFBF1609F43EC0FB1569
:1019100038F020EFB21661F031EFB31689F16FC0E5
:1019200093EFB916C9F1E4EFBE1609F44CC067C0D5
:10193000FF2009F1E110DEC01F7181E090E0A0E01E
:10194000B0E0AC01BD0104C0440F551F661F771FF6
:101950001A95D2F78091F4059091F505A091F605BE
:10196000B091F7058A019B01082719272A273B27F1
:10197000C901B80125C021E02E1508F4BBC0DCCF99
:10198000FF2029F0812F8F712CC0FF20D9F3812FE8
:101990008F710E941C26AEC0FF2079F01F7181E07C
:1019A00090E0A0E0B0E0BC01CD0104C0660F771F5D
:1019B000881F991F1A95D2F703C060E070E0CB0131
:1019C0000E94102697C0FF2079F01F71812F0E947E
:1019D0005A2638E0139FC001112483608093F805D4
:1019E000812F0E945A2686C081E00E94412681E014
:1019F0008E1508F07FC082E00E9441267BC0FF2048
:101A000039F0EE2009F4BECF802F0E94542E72C010
:101A1000EE2009F4BCCF893349F49FEFE7EEF3E001
:101A20009150E040F040E1F700C00000802F0E949C
:101A3000DA2D60C012EFB116E1F01B1538F020EF7F
:101A4000B21669F031EFB31611F12BC084EFB8165E
:101A5000C9F0B81660F095EFB91671F022C0FF20FA
:101A600009F44EC09091420681E0892708C081E0C8
:101A7000F826F092420644C0F11042C081E0809303
:101A800042063EC0F1103CC01092420639C0FF2011
:101A900029F080914106882329F329C0EE2011F313
:101AA0002FC080914106EE20C1F0882341F0909133
:101AB000420681E089278093420610924106802FDA
:101AC000FF2019F00E94542E1BC00E94DA2D86E0E0
:101AD000F60111928A95E9F713C0882389F0F11075
:101AE0000FC09091420681E08927809342061092B0
:101AF000410606C088EF890D843010F40E94231A35
:101B0000AA2059F18091F80580FD27C0F6011282C4
:101B10008595859585950E945A26C6010E940A06DC
:101B20008091F8058595859585950F900F900F907C
:101B30000F900F90DF91CF911F910F91FF90EF9039
:101B4000DF90CF90BF90AF909F907F906F905F900D
:101B50004F900C941C2669E2C1CB0F900F900F9010
:101B60000F900F90DF91CF911F910F91FF90EF9009
:101B7000DF90CF90BF90AF909F907F906F905F90DD
:101B80004F9008959091370592FF0DC0282F28712E
:101B9000283019F4877F846006C0282F24712430F0
:101BA00011F48B7F886093FF0DC0282F2871283196
:101BB00019F4877E846106C0282F2471243111F422
:101BC0008B7E88612091380520FF0DC0382F387139
:101BD000383019F4877F816006C0382F3171313079
:101BE00011F48E7F886021FF0DC0282F28712831C5
:101BF00019F4877E816106C0282F2171213111F4EB
:101C00008E7E886194FD877E08953F924F925F9209
:101C10006F927F928F929F92AF92BF92CF92DF92FC
:101C2000EF92FF920F931F93CF93DF9320E9289FAA
:101C30007001299FF00C1124C0E0D0E000E010E01A
:101C400067018FEFC81AD80A570182E0A80EB11CAD
:101C5000F701EC0FFD1FE450FA4F6491F601EC0F11
:101C6000FD1FE450FA4F7491F501EC0FFD1FE45095
:101C7000FA4F8491611107C0711105C0811103C031
:101C800020E040E03CC00E948C1B962E372E882E10
:101C900060913F0670E080E090E00E94B73020E065
:101CA00030E04FE753E40E9416302B013C01682DD1
:101CB00070E080E090E00E94B930A30192010E94A0
:101CC00045310E948830862E692D70E080E090E0DA
:101CD0000E94B930A30192010E9445310E948830D0
:101CE000962E632D70E080E090E00E94B930A30151
:101CF00092010E9445310E948830282D492DC8014B
:101D00000E94441A0F5F1F4F2396C039D10509F076
:101D10009FCFDF91CF911F910F91FF90EF90DF90B8
:101D2000CF90BF90AF909F908F907F906F905F907B
:101D30004F903F900895CF93E82F873080F58091A2
:101D4000090190910A01892B09F047C0CE2F64E662
:101D500070E080E40E94E72E90930A0180930901CD
:101D6000892BD1F464E670E082E10E943E2F9093CB
:101D70000A0180930901892B79F481E090E001C088
:101D8000880FCA95EAF764E670E080950E943E2FBE
:101D900090930A0180930901CF910C94BA2F90E09F
:101DA000FC013797E730F105C0F4EA58FF4F0C9477
:101DB000DA31209A289811C0219A29980EC0229AC7
:101DC0002A980BC0239A2B9808C0529A5A9805C09B
:101DD000539A5B9802C03E9A4698CF910895CF934C
:101DE000873008F03FC08091090190910A01892B4A
:101DF00009F041C064E670E080E40E94E72E909311
:101E00000A0180930901892B11F0C0E027C064E624
:101E100070E083E10E943E2F90930A0180930901B4
:101E2000892B99F764E670E081E40E94E72E909395
:101E30000A0180930901892B41F784E690E00E9412
:101E40006E2F97FF05C090930A0180930901DDCFA3
:101E5000C82FC09510920A01109209010E94BA2F52
:101E60008C2F0AC09FB18FB1807F86958695937025
:101E7000892B809501C080E0CF910895CF93DF93A7
:101E800024E5829FC0011124FC0146E0749FE00D0F
:101E9000F11D1124E60FF11DEE0FFF1FEC59FE4F4F
:101EA000C591D491CE01C238D10569F1B0F4C133E6
:101EB000D10509F475C048F4C932D10509F469C0E7
:101EC000CA32D10509F473C085C0C533D10509F400
:101ED00059C0C933D105B9F07DC0C33ED10571F1F8
:101EE00038F4C03ED105B1F0C23ED10511F172C047
:101EF000C63ED105B9F1C73ED105C9F1C43ED105F1
:101F000009F068C024C02091370520FD5DC021FD87
:101F10005BC060C02091370520FD50C0209138057E
:101F200020FF57C18091370584FD51C183EE90E0B9
:101F300050C12091370522FF4CC1F4CF8091370565
:101F400082FD3FC08091380580FD3EC0EBCF2091DF
:101F5000380521FF3EC18091370584FD38C187EEE9
:101F600090E037C12091370523FF33C1F4CF809132
:101F7000370583FD2CC08091380581FFECCF84EEBE
:101F800090E027C12091370525FF23C189E290E029
:101F900020C12091370525FF1CC185E390E019C1C0
:101FA0002091370526FF15C18AE290E012C12091E9
:101FB000370526FF0EC181E390E00BC189E390E075
:101FC00008C182EE90E005C180EE90E002C186EE8D
:101FD00090E0FFC0C11552E5D50708F075C0C115E6
:101FE00021E5D20728F09C2F8827816F906AF1C0E5
:101FF000C83ED10570F5C03ED10508F0EAC0C83A28
:10200000D105B8F4C53AD10550F08C2F855AC82FA8
:10201000D0E0C059DC4F888190E09064DAC0C130D4
:10202000D10509F4D6C008F4D2C0249708F4CFC073
:10203000D0C0CF3BD10508F0CAC08C2F885AC82F1A
:10204000D0E0CC0FDD1FCD58DC4F8881998194649E
:10205000C0C0C11540E2D40760F4C11551E0D507F6
:1020600008F0B7C0C03FD10508F4B1C0CE019065FB
:10207000B0C0C11580E4D80708F4A9C0C11520E597
:10208000D20720F4CE019F70906AA3C0CE01F4E085
:1020900096958795FA95E1F7282F23703C2F33709A
:1020A00081E090E002C0880F991F3A95E2F79C68A2
:1020B000922B2C2F2F702695269550E2259F90016C
:1020C0001124822B932B85C0C11546E5D40708F057
:1020D0003FC0C11555E5D50748F08C2F0E94C20DB1
:1020E0008F7190E0982F8827906273C0C11584E5A6
:1020F000D80728F09C2F8827846F906A6AC09E01B9
:10210000237033279C2F96959695C115D34580F45F
:1021100041E050E002C0440F551F2A95E2F780E2EB
:10212000989F90011124CA01822B932B9C6851C067
:1021300041E050E002C0440F551F2A95E2F780E2CB
:10214000989F90011124CA01822B932B9A6841C059
:10215000C1155AE5D50778F5C11589E5D80710F1FD
:102160008C2F8F700E94C20D9E0194E036952795AA
:102170009A95E1F72F7030E0322F22273069A901BC
:10218000482B0EC090568115904208F58D2F8F7107
:102190000E94C20D9E01332730628F71A901582B16
:1021A000CA0117C0C11528E5D20788F09C2F8827DF
:1021B000806F906A0EC0C1154BE5D40740F0CE0188
:1021C000C1155CE5D507F0F69927906602C080E05E
:1021D00090E0DF91CF910895CF92DF92EF92FF923E
:1021E0006B017C010E94CE2456985E9825982D980C
:1021F00026982E9827982F9890E0FC013197E73089
:10220000F105A8F4E358FF4F0C94DA31259A2D9A82
:102210000EC0259A2D9A269A2E9A09C0259A2D9A93
:1022200004C0259A2D9A269A2E9A279A2F9AC7018A
:10223000B601FF90EF90DF90CF90089540E060E00E
:1022400080E00E94421A81E080936405089580E254
:1022500090E090930A01809309018091AE0381116F
:102260000EC00E94E12E81E08093AE032FEF83ED3C
:1022700090E3215080409040E1F700C0000064E608
:1022800070E080E40E94E72E90930A018093090198
:10229000892B09F04EC064E670E080E00E943E2F7A
:1022A00090930A0180930901892B09F042C064E6EA
:1022B00070E080E00E943E2F90930A018093090114
:1022C000892BB9F564E670E08FE30E943E2F90936E
:1022D0000A0180930901892B61F50E94BA2F64E6F7
:1022E00070E080E40E94E72E90930A018093090138
:1022F000892BF9F464E670E08CE00E943E2F909305
:102300000A0180930901892BA1F464E670E080E062
:102310000E943E2F90930A0180930901892B49F472
:1023200064E670E08FE30E943E2F90930A01809351
:1023300009010E94BA2F809109010895CF93DF937C
:1023400056985E9825982D9826982E9827982F981D
:10235000C8E8D0E08FEF90E099838883AAE8B0E0E6
:1023600011969C938E93ECE8F0E091838083259AFC
:102370002D9A2FEF80E792E0215080409040E1F7C6
:1023800000C00000269A2E9A2FEF80E792E021509D
:1023900080409040E1F700C00000279A2F9A2FEF6D
:1023A00080E792E0215080409040E1F700C00000BB
:1023B00025982D982FEF80E792E0215080409040A3
:1023C000E1F700C0000026982E982FEF80E792E0FA
:1023D000215080409040E1F700C0000027982F98DE
:1023E0008091250587702FEF829FC001112495955C
:1023F00087959595879599279983888311969C93BE
:102400008E939183808356985E9825982D98269870
:102410002E9827982F98DF91CF91089584B1807FCF
:1024200084B985B1807F85B98AB1837F8AB98BB140
:10243000837F8BB93E984698089580B38C7080BB9B
:1024400081B3836F81BB08958F929F92AF92BF92A9
:10245000CF92DF92EF92FF920F931F93CF93DF9370
:102460008091090190910A01892BA1F08091AD031F
:102470008F5F8093AD0381110DC00E94271190E002
:1024800090930A0180930901892B21F40E94EB1A91
:102490000E949E1169E2E62E65E0F62E6701D0E00B
:1024A000812C07E00D0F8D2F0E949B0E802F0E9424
:1024B0009B0E8D2F0E94EF0EF6019081891719F067
:1024C000808311E001C010E0802F0E94EF0EF60122
:1024D0009781891719F0878381E001C080E0182B6C
:1024E000812A0E940E12DF5FFFEFCF1ADF0AD7307A
:1024F000C1F60E94A1236AEF70E00E94B231BC01D4
:10250000482F8091A8038823D9F11092A803E09165
:102510001F05F0912005DF011E9690E08BEF0AEF7A
:1025200010E020812B3F99F0C22ED12C421720F0D1
:102530009B012C193D0905C098012C193D09260F56
:10254000371F2431310514F0808301C091E03196AA
:10255000EA17FB0731F79093A803811002C091118D
:1025600011C01092A703E0911F05F09120059091F2
:10257000A803ACE3B5E0BF01625F7F4F80E028C0F5
:102580008110EFCF8091A7038111EBCF0091A903B8
:102590001091AA032091AB033091AC038FB7F8944C
:1025A0004091010650910206609103067091040665
:1025B0008FBFDB01CA01801B910BA20BB30B40172D
:1025C000510762077307E0F40197A109B10918C028
:1025D000E70129917E013C91321741F030813B3F68
:1025E00021F440832C9391E001C081E03196119653
:1025F0006E177F0769F79093A8038093A703C6CF50
:102600002FB7F894C0900106D0900206E090030620
:10261000F09004062FBFC092A903D092AA03E092C3
:10262000AB03F092AC0340913806509139066091AB
:102630003A0670913B064F3FDFEF5D076D077D0760
:10264000E9F0AA27BB278C019D01009510952095E4
:102650003095041715072607370720F48FEF9FEFF3
:10266000DC0104C0840F951FA61FB71F8093380696
:1026700090933906A0933A06B0933B069090640578
:10268000911008C0D0913C068D2F837019F0D6951B
:10269000D69501C0D0E0809106018130A1F038F0DC
:1026A000823009F489C1833009F493C1B9C1109211
:1026B0001601C0923406D0923506E0923606F092AA
:1026C000370681E083C180910801D8130DC02091A5
:1026D0003C06237030E04091070150E081E0241770
:1026E000350719F480E001C081E081708093180102
:1026F0004D2F50E04631510508F04CC1FA01EC571E
:10270000FF4F0C94DA31882309F444C180911601FB
:10271000182F110F110F180F05E0010F013308F0EA
:1027200000E3101708F0F7C020E040E060E0812FE0
:1027300090E00E94441A1F5FF4CF80911601182F79
:10274000110F110F180F05E0010F013308F000E31E
:1027500060913D0670913E0680913F060E948C1B61
:10276000E62ED72EC82E101708F0D5C0E12FF0E0C6
:10277000DF01A05CBC4F8C9190911701982331F040
:102780002C2D4E2D6D2DCF010E94441A1F5FEBCFD3
:1027900080911601182F110F110F180F05E0010F6E
:1027A000013308F000E3B0903E06A0903F06209170
:1027B000400650E4E52E3E2D329F312D1124E32EAC
:1027C000101708F0A8C0C12ED12CF601E05CFC4F18
:1027D0009081809117018923B9F0F601EE0FFF1F58
:1027E000EF51FD4F808182958F7060913D068E9DE7
:1027F000600D11247B2D8A2D0E948C1B462F282FC3
:10280000672FC6010E94441A1F5FDACF809116011C
:10281000182F110F110F180F05E0010F013308F0E9
:1028200000E3B0903E06A0903F062091400630E4C1
:10283000C32E3C2D329F312D1124C32E101708F0CA
:102840006AC0E12EF12CF701E05CFC4F9081809191
:1028500017018923D9F0F701EE0FFF1FE052FD4F5A
:102860006081C69EB001112495E0759567959A9593
:10287000E1F780913D06680F7B2D8A2D0E948C1B0D
:10288000462F282F672FC7010E94441A1F5FD6CFFB
:1028900080911601182F110F110F180F05E0010F6D
:1028A000013308F000E3D0903D06E0903E06C09072
:1028B0003F06609140066695669566958091340660
:1028C000909135060E94821B0E94071B805887FD4D
:1028D0008195880F282F3C2D239F212D1124822F95
:1028E0006D2D7E2D0E948C1BE62ED72EC82E101724
:1028F00090F4E12FF0E0DF01A05CBC4F8C9190914F
:102900001701982331F02C2D4E2D6D2DCF010E94F3
:10291000441A1F5FECCF81E00033E8F13BC084EA4A
:1029200096E11AC088E796E117C08DE797E11FC0CE
:102930008EE597E11CC083E497E11EC087E297E132
:102940001BC086E796E108C08DE696E105C084E6E7
:1029500096E102C089E496E10E94C8271CC08AE380
:1029600096E10AC089E59BE102C086E197E10E94F9
:102970006C2711C082E097E10E94F0260CC08CE029
:1029800096E105C08AED95E102C08CE995E10E94CF
:102990008F2601C080E0909116019F5F90931601F1
:1029A00081113EC082E0809306018091180181115F
:1029B00037C0DD2351F034C0D093080180913C062C
:1029C0008370809307010E94C01783E08093060103
:1029D00027C0C0903406D0903506E0903606F090BF
:1029E00037068FB7F8944091010650910206609126
:1029F0000306709104068FBFDB01CA018C199D0983
:102A0000AE09BF094C155D056E057F0518F40197E9
:102A1000A109B1094A97A105B10510F0109206016C
:102A2000911036C080916405811132C080912505D6
:102A300083FD2EC06091F4057091F5058091F60537
:102A40009091F7050E94CE24833091F038F48130C4
:102A500061F08230A9F482E090E00FC0843059F038
:102A6000853071F485E090E008C081E090E005C019
:102A700083E090E002C084E090E00E94050E08C070
:102A800080911701811104C040E060E00E94421A69
:102A9000882DDF91CF911F910F91FF90EF90DF90E4
:102AA000CF90BF90AF909F908F9008958033910505
:102AB00040F5880F991F880F991FFC01EC5DFE4FB0
:102AC00052813381808183707181A82FB0E0E0E969
:102AD0008E9FC00111248B539C4FFC01E70FF11D09
:102AE000B4976083FC01E50FF11DB4974083830F19
:102AF000911DFC01B4972083FD01ED53FC4F81E053
:102B000080830895FF920F931F93CF93DF93182F25
:102B1000062FF42EC0E0D0E02F2D402F612FCE01E4
:102B20000E9456152196C033D105B1F7DF91CF91A0
:102B30001F910F91FF9008950F931F9310E0F801DC
:102B4000EE0FFF1FE052FD4F9081905797FD91953A
:102B5000000F111FF801EF51FD4FE081F0E0B09739
:102B6000DF01AA0FBB1F8D010E0F1F1F2003D00115
:102B7000219FB00D1124E8E3F0E0E91BF10997FD76
:102B8000F3959F01220F331F89010E0F1F1F400372
:102B90009001419F300D11242A0F3B1F37FF02C0C7
:102BA00021583F4F220F232F221F330B620F1F91FB
:102BB0000F9108950F931F93522F10E0F801EE0F1D
:102BC000FF1FEF51FD4FE081F0E0B097EE0FFF1FC8
:102BD0009F015203D001539FB00D1124000F111F0C
:102BE000F801E052FD4F008110E000571109000F7D
:102BF000111F40039001419F300D11242A0F3B1FEC
:102C000037FF02C021583F4F220F232F221F330BC3
:102C1000620F1F910F9108950F931F93522F10E091
:102C2000F801EE0FFF1FEF51FD4FE081F0E0B0978C
:102C30009F015203D001539FB00D1124000F111FAB
:102C4000F801E052FD4F008110E0005711094003E8
:102C50009001419F300D11242A0F3B1F37FF02C006
:102C600021583F4F220F232F221F330B620F1F913A
:102C70000F910895EF920F931F9393E0099F8001A6
:102C80001124159507956E2D600F1F910F91EF90F0
:102C90000895A22F50E0FA01EE0FFF1FEF51FD4FF4
:102CA0009081905297FD9195440F551FFA01E05283
:102CB000FD4F3081232F30E02A1B3109290F311DB0
:102CC00097FD3A95620F0895E42FF0E0EE0FFF1F95
:102CD000EF51FD4F6081621B0895E42FF0E0EE0F8D
:102CE000FF1FE052FD4F6081621B0895622F08951F
:102CF000E42FF0E0EE0FFF1FE052FD4F408134EE75
:102D0000439F412D1124E82FF0E050E0445E5F4FD7
:102D1000DA01A21BB1099D01B7FF03C031952195CE
:102D2000310993E0220F331F9A95E1F7AF01421B5F
:102D3000530B9A0157FF02C020E030E0582F259F27
:102D4000212D1124822F0895E42FF0E0EE0FFF1FB4
:102D5000E052FD4F408134EE439F412D1124E72F77
:102D6000F0E050E0445E5F4FDA01A21BB1099D0123
:102D7000B7FF03C031952195310993E0220F331F2E
:102D80009A95E1F7AF01421B530B9A0157FF02C01E
:102D900020E030E0279F212D1124722F0895FC019F
:102DA0009B01009721F477FF2BC080E80895AC01C8
:102DB00097FF04C044275527481B590BB901640FDE
:102DC000751F37FD0CC0241B350BC901A5E0880F0A
:102DD000991FAA95E1F70E94C63180E20CC0CB0191
:102DE00065E0880F991F6A95E1F7BA01621B730BC2
:102DF0000E94C63180E6861BF7FF03C081950895C7
:102E000080E00895EF920F93CF93DF93D72FC82FD1
:102E1000C9010E19BA010E94CF16602F681B7D2FC1
:102E20008C2FDF91CF910F91EF9008950F93CF9357
:102E3000DF93D72FC82FC901BA010E94CF16682F80
:102E4000600F7D2F8C2FDF91CF910F910895EF921E
:102E50000F931F93CF93DF93D62FC72F182FC9013E
:102E60000E19010FBA010E94CF16081B202F219FB7
:102E7000212D1124822F6D2F7C2FDF91CF911F9157
:102E80000F91EF900895EF920F931F93CF93DF93DD
:102E9000D62F172FC82FC9010E19070FBA010E948C
:102EA000CF16702F781B719F712D11246D2F8C2FD1
:102EB000DF91CF911F910F91EF900895FF920F93A3
:102EC0001F93CF93DF93F62ED72F182FC901C12F51
:102ED000C01BBA010E94CF16982F990F890FC81BEB
:102EE0002C2F219F212D1124822F6F2D7D2FDF91DB
:102EF000CF911F910F91FF900895FF920F931F9311
:102F0000CF93DF93F62E172FD82FC901C72FC01BE1
:102F1000BA010E94CF16982F990F890F7C2F781B2A
:102F2000719F712D11246F2D8D2FDF91CF911F91E6
:102F30000F91FF9008950F931F93CF93DF93082F66
:102F4000000FEB0114E21093AF03E0EBF3E0DE01BE
:102F50008D91819383E0E03CF807D1F724E630E0DF
:102F600041E150E06FEA73E0802F0E94932F105FE1
:102F70006096143B41F7DF91CF911F910F91089517
:102F80008091C303882329F065EC73E084E70E94F5
:102F90009B171092C3038091C403882329F065E531
:102FA00074E087E70E949B171092C4030895EFEA2C
:102FB000F3E06083418324E630E042E050E0BF016B
:102FC000880F0C94932FFF920F931F93CF93DF934F
:102FD000E62FF0E0E75FFA4F90819923B1F0F82EE9
:102FE00082E1689FE001112400E010E0F801EC0F9D
:102FF000FD1FEB51FB4F4081602F8F2D0E94D71793
:103000000F5F1F4F0231110589F7DF91CF911F919B
:103010000F91FF900895CF93DF93C82F4BE06DEF92
:103020000E94D71740E06AE08C2F0E94D7178FE3E9
:103030009CE90197F1F700C0000040E060E08C2FB0
:103040000E94D71740E061E08C2F0E94D71740E024
:1030500066E08C2F0E94D71740E06DEF8C2F0E9406
:10306000D717D0E040E06D2F8C2F0E94D717DF5F7D
:10307000D231C1F740E06D2F8C2F0E94D717DF5F50
:10308000D432C1F740E06D2F8C2F0E94D717DF5F3D
:10309000D43BC1F74BE06DEF8C2F0E94D71741E076
:1030A0006AE08C2F0E94D71740E06DEF8C2FDF91E4
:1030B000CF910C94D7177F928F929F92AF92BF922D
:1030C000CF92DF92EF92FF920F931F93CF93DF93F4
:1030D0000E94E12E84E70E940B1887E70E940B18DC
:1030E00004E211E0E12CF12C42E138E0A32EB12CF6
:1030F000CC24C394D12C77247394D80111962C91AD
:10310000119730E0C90184971296CC911297D0E0C4
:10311000A4971396EC91F0E0B497BC0197FF02C01E
:10312000695F7F4FA3E075956795AA95E1F7D70191
:10313000AA0FBB1FAA0FBB1FAC5DBE4F2C91237003
:1031400030E0429FD001439FB00D1124AB51BB4FE3
:103150004D01860E911CB5010E94C631B60102C018
:10316000660F771F8A95E2F7CB01D4019C91892BDA
:103170008C93CE01D7FD079663E0959587956A9568
:10318000E1F7429FB001439F700D11246B517B4FBB
:103190004B01880E911CCE01B5010E94C631B601CB
:1031A00002C0660F771F8A95E2F7CB01D4019C918C
:1031B000892B8C93CF01F7FD079653E09595879562
:1031C0005A95E1F7429FE001439FD00D1124CB5166
:1031D000DB4FC80FD11DCF01B5010E94C631F601EA
:1031E00002C0EE0FFF1F8A95E2F7CF019881892B6D
:1031F0008883F901E75FFA4F7082FFEFEF1AFF0A49
:103200000C5F1F4F60E3E616F10409F076CF60E033
:1032100084E70E94E31761E087E7DF91CF911F9178
:103220000F91FF90EF90DF90CF90BF90AF909F9065
:103230008F907F900C94E3170F931F93CF93DF939E
:10324000CDB7DEB767970FB6F894DEBF0FBECDBF20
:103250004B8B5C8B6D8B7E8B8F8B0E891F89011541
:10326000110531F05F3F31F481E04F3F19F403C0A5
:1032700081E001C080E080FD32C0242F30E0A1E079
:10328000B0E0042E01C0AA0F0A94EAF7852F90E05F
:10329000662319F07091420605C0FC01EF5EFA4FFB
:1032A00070817A237723A1F046E0489FF001499F7F
:1032B000F00D1124E20FF31FEE0FFF1FEC51FE4F34
:1032C00040815181FC01EF5EFA4F9081A92B06C02D
:1032D000FC01EF5EFA4FA0958081A823A08386E0D1
:1032E000FE013D96DF01982F1D929A95E9F74D87D3
:1032F0005E876F87198B088BDE01179601900D9200
:103300008A95E1F7CE0107960E94A42B81113EC059
:1033100086E0FE013796DE01119601900D928A95A6
:10332000E1F7FF81E8856A857B856115710531F0DC
:10333000EF3F31F481E0FF3F19F403C081E001C0A9
:1033400080E080FD23C020918B0530E0C90101960B
:10335000877099274091BC0550E08417950779F153
:10336000F983EA837D836C8396E0929FD001939FDB
:10337000B00D1124A457BA4FFE01319601900D9261
:103380009A95E1F780938B050E94852616E080913F
:10339000BC0590918B058917F9F0189FC001112485
:1033A00084579A4F0E94A42B8823B1F08091BC05CA
:1033B00090E00196877099278093BC05E8CF0E9422
:1033C0009B2D10928B051092BC05E5E8F5E086E098
:1033D000DF011D928A95E9F767960FB6F894DEBF74
:1033E0000FBECDBFDF91CF911F910F910895209116
:1033F0000F05309110052817390771F090931005CB
:1034000080930F05E0913905F0913A05309721F04E
:103410000084F185E02D0994089520910D053091E7
:103420000E052817390771F090930E0580930D054E
:10343000E0913905F0913A05309721F00680F78147
:10344000E02D09940895E0913905F0913A053097FF
:1034500021F00190F081E02D099480E00895882307
:1034600011F0FA0101C0FB01099480913C068370C0
:1034700011F41092060180913C068C7F816080934C
:103480003C0608950C9482150C94561545E050E0C6
:103490006CE170E08CE396E00C94E22FECE3F6E054
:1034A000248130E1231B08F420E024830C94461A85
:1034B000ECE3F6E0248130E1230F08F42FEF2483BE
:1034C0000C94461AECE3F6E0238130E1231B08F468
:1034D00020E023830C94461AECE3F6E0238130E1EC
:1034E000230F08F42FEF23830C94461AECE3F6E045
:1034F000228130E1231B08F420E022830C94461A39
:10350000ECE3F6E0228130E1230F08F42FEF228371
:103510000C94461AECE3F6E08181885081830C9488
:10352000461AECE3F6E08181885F81830C94461AA9
:1035300090913C06892F86958695815C8F73937058
:10354000882321F0880F880F892B02C0892F84657A
:1035500080933C06109206010C94461A90913C060A
:10356000892F869586958F5F8F739370863120F4AF
:10357000880F880F892B02C0892F846080933C06B6
:10358000109206010C94461A90913C0696959695D9
:10359000981720F0961710F40C94AE1A880F880F25
:1035A00090913C069370892B80933C061092060103
:1035B0000C94461AECE3F6E081E3808380911901D4
:1035C00090911A01A0911B0181839283A3838CE3C4
:1035D00084830C94461A0E945B1880E090E00E945D
:1035E000DC2F8F3E9E4F21F00E945A240E94DA1A4F
:1035F00045E050E06CE170E08CE396E00E94BE2F65
:1036000080913C068C7F11F40C94DA1A0895482FAF
:10361000982F46FD9095E92FEF739F7046FD9F5FB1
:10362000E295EF70EE0FF0E0E45EFE4F2181299FFE
:10363000802D212D112482958F702295207F822B41
:103640003081982F930F892F47FD819580580895D9
:10365000BC018230910508F40895613E8EE178073F
:1036600048F49B0195E0369527959A95E1F748E057
:10367000420F01C04FEF91E0242F30E0290F311DA0
:1036800035952795229FF001239FF00DF00D112411
:103690006E177F0718F44FEF420F04C02F3F39F029
:1036A00091E0920F491740F78FEF890F08958FEF40
:1036B00008950F93CF93DF93D72FC82F47FD4195E0
:1036C000E8E3F0E0CF01841B910947FD9395889FC3
:1036D000B001899F700D700D1124229FC001239F9E
:1036E000900D900D1124860F971F0E94281B682FA4
:1036F000660F860F682F600F7D2F8C2FDF91CF9183
:103700000F91089520E030E0869F212D969F200D97
:10371000311D1124C9010895EF92FF920F931F9359
:10372000CF93DF93F62E472FE82FF0E0711106C0FC
:10373000E45AF64F6491762F862F72C0272F30E01F
:10374000E45AF64FE4910E2F10E056E0659FC00159
:103750001124CFEFD0E0BE010E94B2315BEA5603E4
:10376000C001579F900D11248F0D911D8F0D911D3C
:10377000982F990F890F7E01E21AF30AE09ED0017B
:10378000E19EB00DF09EB00D1124489FA0011124C0
:10379000452F55277E01E41AF50AE09EA001E19E1F
:1037A000500DF09E500D11247E01E81AF108E29EA2
:1037B000C001E39E900DF29E900D1124892F992750
:1037C000C81BD90BC09FC001C19F900DD09F900D09
:1037D00011246230710591F048F461157105E1F032
:1037E00061307105A9F48B2F752F19C064307105F4
:1037F00061F038F06630710579F00AC0892F7B2FAF
:103800000EC08E2F7B2FE52F0AC08E2F792F02C07E
:10381000852F7E2FEB2F03C08B2F7E2FE92F6E2F4E
:10382000DF91CF911F910F91FF90EF9008956091DC
:1038300021058CE090E00C94F22F0F931F93CF930F
:10384000DF93C62FD42F122FFC0182818823C9F069
:103850006093A3030E94A12390930C0580930B0512
:1038600080E28C0F883008F057C0C77081E001C03B
:10387000880FCA95EAF7DF91CF911F910F910C94B1
:10388000D02D8091A303681330C080910B059091D7
:103890000C050E947723833B910538F500E20D0F5C
:1038A000CD17B9F080E28C0F883040F4C77081E00A
:1038B00001C0880FCA95EAF70E94C52D083028F587
:1038C00081E09D2F977001C0880F9A95EAF70E94BA
:1038D000D02D812F0E94412E0830F0F4D77081E066
:1038E00001C0880FDA95EAF70AC080E28C0F8830B1
:1038F00098F4C77081E001C0880FCA95EAF7DF919C
:10390000CF911F910F910C94C52D812FDF91CF91F5
:103910001F910F910C94412EDF91CF911F910F9128
:103920000895E8EDF0E080818E7F80831092E200C0
:103930001092DA001092E100A0EEB0E08C9181606C
:103940008C9380818F77808319BCA7EDB0E08C9138
:103950008E7F8C9380818F7E808310926305089583
:103960001F920F920FB60F9211242F933F934F93F4
:103970005F936F937F938F939F93AF93BF93CF93F7
:10398000DF93EF93FF93C091E900CF708091EC003B
:10399000D82FD17080FDD0E81092E9008091F0001E
:1039A000877F8093F00078940E943E281092E9006F
:1039B0008091F00088608093F000CD2BCF70C09391
:1039C000E900FF91EF91DF91CF91BF91AF919F916E
:1039D0008F917F916F915F914F913F912F910F90B8
:1039E0000FBE0F901F9018952091E4003091E500D4
:1039F00095E64091EC00842F817040FF23C08091B8
:103A0000E80080FD1DC080912A06882399F085304A
:103A100099F08091EB0085FD11C04091E400509138
:103A2000E5002417350729F3915011F09A01E1CFF1
:103A300084E0089582E0089583E0089581E0089588
:103A400080E008954091E80042FFDDCF0895809125
:103A50002C0687FF11C08091E80082FD05C080918F
:103A60002A068111F8CF11C08091E8008B770BC036
:103A700080912A06882349F08091E80080FFF8CFE2
:103A80008091E8008E778093E8000895982F973012
:103A900068F59093E900981739F07091EC00209147
:103AA000ED005091F00003C0242F762F50E021FD4F
:103AB00002C09F5FECCF3091EB003E7F3093EB0074
:103AC0003091ED003D7F3093ED003091EB0031609F
:103AD0003093EB007093EC002093ED005093F000D6
:103AE0002091EE0027FDE5CF80E008958F70809350
:103AF000E90081E00895CF92DF92EF92FF920F9359
:103B00001F93CF93DF93C8EDD0E088818F7E8883A9
:103B1000E7EDF0E080818160808384E082BF81E016
:103B20008093630588818E7F888302EE10E0F80120
:103B300010821092DA0081EEC82ED12CF60110828C
:103B400088818F77888388818068888388818F7D4A
:103B5000888319BC10922A0610922B06109229060F
:103B60001092280690EEE92EF12CF70180818B7FD0
:103B7000808388818160888342E060E080E00E94E9
:103B8000461DF60180818E7F8083F80180818160EF
:103B90008083808188608083F70180818E7F80832D
:103BA000888180618883DF91CF911F910F91FF9071
:103BB000EF90DF90CF9008951F920F920FB60F9263
:103BC00011242F933F934F935F936F937F938F9322
:103BD0009F93AF93BF93EF93FF938091E10082FF98
:103BE00009C08091E20082FF05C08091E1008B7FD7
:103BF0008093E1008091DA0080FF2AC08091D80094
:103C000080FF26C08091DA008E7F8093DA00809159
:103C1000D90080FF18C080E189BD82E189BD09B467
:103C200000FEFDCF81E080932A068091630581111B
:103C30000FC00E94911C0E947B1D8091E200846055
:103C40008093E20005C019BC10922A061092630509
:103C50008091E10080FF17C08091E20080FF13C0D7
:103C60008091E2008E7F8093E2008091E20080618B
:103C70008093E2008091D80080628093D80019BCC4
:103C800085E080932A068091E10084FF34C0809112
:103C9000E20084FF30C080E189BD82E189BD09B4C2
:103CA00000FEFDCF8091D8008F7D8093D800809159
:103CB000E1008F7E8093E1008091E2008F7E80930F
:103CC000E2008091E20081608093E20080912B0607
:103CD000882311F084E007C08091E30087FD02C0D3
:103CE00081E001C083E080932A060E949B2D0E9400
:103CF000231A109264058091E10083FF27C0809110
:103D0000E20083FF23C08091E100877F8093E10080
:103D100082E080932A0610922B068091E1008E7F2C
:103D20008093E1008091E2008E7F8093E200809199
:103D3000E20080618093E20042E060E080E00E9467
:103D4000461D8091F00088608093F000FF91EF9114
:103D5000BF91AF919F918F917F916F915F914F91A3
:103D60003F912F910F900FBE0F901F9018952091AB
:103D70003206309133062617370748F06115710572
:103D800039F42091E8002E772093E80001C0B901B2
:103D9000FC0120E06115710579F180912A068823E4
:103DA000F1F18530F1F18091E80083FD3CC0809114
:103DB000E80082FD2EC08091E80080FFEBCF2091CB
:103DC000F3008091F20090E0922B6115710551F0A3
:103DD0008830910538F421912093F10061507109E8
:103DE0000196F3CF21E0089709F020E08091E800E8
:103DF0008E778093E800CECF2111CFCF0AC080917B
:103E00002A06882361F0853061F08091E80083FD07
:103E10000AC08091E80082FFF2CF80E0089582E03E
:103E2000089583E0089581E0089580912A06843002
:103E300011F081E0089582E00895CF93DF93CDB72C
:103E4000DEB72A970FB6F894DEBF0FBECDBF84B79A
:103E5000877F84BF0FB6F894A89580916000886131
:103E600080936000109260000FBE90E080E80FB673
:103E7000F89480936100909361000FBE85B78068CD
:103E800085BF85B7806885BF0E94911C0E947B1DFD
:103E90008091E20084608093E200789480912A0609
:103EA0008823A1F01091E9001F709091EC00892FF8
:103EB000817090FD80E8182B1092E9008091E80055
:103EC00083FD0E943E281F701093E90082E084BDAC
:103ED00093E095BD9AEF97BD80936E000E942711E5
:103EE00090E090930A01809309010E940E120E94B3
:103EF0001D12A9E2B5E00AE415E0ECE3F5E0119249
:103F00001D9225E0EA34F207D1F78EE090E00E949E
:103F1000E03180931F0590932005FC010E962BEF56
:103F200021938E179F07E1F780E090E00E94DC2F3D
:103F30008F3E9E4F11F00E945A240E94EB1A8CE093
:103F400090E00E94CE2F90E0A0E0B0E080932105A9
:103F500090932205A0932305B093240589EA8093CA
:103F6000800089E08093810024982C983F988AB142
:103F70008F7C8AB96E98479A8BB180638BB9769A99
:103F80008FE090E00E94D62F609325057093260560
:103F9000809327059093280567708FEF869FB00167
:103FA00011247595679575956795772770938900A6
:103FB0006093880070938B0060938A0070938D00EB
:103FC00060938C009091250594FF03C080931701A6
:103FD00002C0109217010E949E1180E090E00E94A2
:103FE000DC2F8F3E9E4F11F00E945A2482E090E019
:103FF0000E94CE2F809354050E9449249093380547
:104000008093370583E090E00E94CE2F682F70E008
:1040100080E090E00E947B260E94351A0E94351AAB
:104020000E94461A8BE091E090933A0580933905FF
:10403000BB24B394AA24AA9480E1982E92E1892EFD
:1040400028E1C22ED12C30E4732E80912A068530CF
:1040500009F04AC00E941E1180912A06843019F18D
:1040600010923B050FB6F894A895C09260000FBE61
:10407000709260000E941E1183B7817F846083BFAD
:1040800083B7816083BF7894889583B78E7F83BF21
:104090000FB6F894A89580916000886180936000C5
:1040A000109260000FBE80912906882309F4CDCFBD
:1040B0000E94271190E090930A01809309010E94C9
:1040C0000E120E941D12ECE3F5E011920E171F076D
:1040D000E1F70E942412ECE3F5E081918111DCC04C
:1040E0000E171F07D1F7B1CF0E942412A5E5B5E046
:1040F000ECE3F5E0E12CF12C3E2D21919D919227EE
:1041000021F180E066246394492F4621D1F0898310
:104110003A83262181E009F480E08B830E94A12369
:104120008160782F9D838C8349815A816B818D8139
:104130000E941C19F701EB5AFA4F808168266082B1
:104140001AC08F5F660C8630F9F68FEFE81AF80A0E
:104150002EE0E216F10481F6AE82AF8218860E944C
:10416000A1238160782F9A8789874E815F81688536
:104170008A850E941C1980915105909152050E94D8
:1041800077239C0190915005992321F0243131052A
:1041900008F476C080914C05F0904D0581110BC05C
:1041A000F1108EC020914E0521118AC020914F053B
:1041B000211186C065C09F3F19F09F5F9093500505
:1041C000181624F40E94C92280934C0580914C0556
:1041D00087FF05C00E94C922819580934C051F145A
:1041E00024F40E94C92280934D0580914D0587FFDC
:1041F00005C00E94C922819580934D0530914C05E0
:104200003323D1F020914D052223B1F045EB340347
:10421000C0011124992319F090934C0502C0B0926B
:104220004C0535EB2303C0011124992319F0909319
:104230004D0502C0B0924D0580914E05181624F42C
:104240000E94A92280934E0580914E0587FF05C0EC
:104250000E94A922819580934E0580914F051816E2
:1042600024F40E94A92280934F0580914F0587FF77
:1042700005C00E94A922819580934F050E94AD231D
:104280000E94231A90915305891709F4DECE0E94EB
:10429000231A80935305D9CE99BC89BC09B400FE7A
:1042A000FDCF8091D8008F7D8093D8008091E00071
:1042B00082608093E0008091E00081FDFCCFC5CE5C
:1042C0009F3F09F07ACF8BCF809107060895CF9357
:1042D000DF9300D01F92CDB7DEB790912A069430BD
:1042E00019F589837B836A8382E08093E9008FEFED
:1042F0009091E800815095FD06C095ED9A95F1F7F3
:1043000000008111F5CF8091E80085FF0DC040E0ED
:1043100050E063E070E0CE0101960E941228809187
:10432000E8008E778093E8000F900F900F90DF9158
:10433000CF910895CF93DF93EC010E94151F823037
:1043400011F0843031F4BE0184E0DF91CF910C9400
:104350006721DF91CF910895BC016058710983E016
:104360000C946721CF93DF93EC010E94151F8230DC
:1043700011F08430F9F482E08093E9008FEF90919E
:10438000E800815095FD06C095ED9A95F1F7000083
:104390008111F5CF8091E80085FF0CC040E050E02E
:1043A00066E070E0CE010E9412288091E8008E77CE
:1043B0008093E800DF91CF910895CF93DF93EC01D4
:1043C0000E94151F823011F08430D9F580911501BB
:1043D000882339F08091370587FF03C060E282E0CF
:1043E00002C068E081E08093E9008FEF9091E800DF
:1043F000815095FD06C095ED9A95F1F70000811169
:10440000F5CF8091E80085FF1CC0809115018111D6
:1044100005C040E050E068E070E003C070E040E0BC
:1044200050E0CE010E9412288091E8008E778093A0
:10443000E80080E2FE01A8E0B6E001900D928A95C6
:10444000E1F7DF91CF910895803F39F480914D05D8
:1044500087FF6CC010924D0569C0813F29F480919F
:104460004D051816BCF362C090914C05823F29F4AB
:1044700097FF5CC010924C0559C0833F19F4191680
:10448000CCF354C0893F41F480914E0518160CF0CE
:104490004DC010924E054AC08A3F29F480914E05C6
:1044A00087FF44C0F6CF8B3F39F480914F0587FFDB
:1044B0003DC010924F053AC08C3F29F480914F05C2
:1044C0001816BCF333C0843F21F480914B058E7FD6
:1044D00017C0853F21F480914B058D7F11C0863F29
:1044E00021F480914B058B7F0BC0873F21F4809195
:1044F0004B05877F05C0883F31F480914B058F7E47
:1045000080934B0513C08D3F21F4809105068E7F6B
:104510000BC08E3F21F4809105068D7F05C08F3F33
:1045200029F4809105068B7F8093050680914C05C8
:1045300081110EC080914D0581110AC080914E05F8
:10454000811106C080914F05811102C01092500563
:1045500008958091050680FD18C081FD14C082FD7C
:1045600016C080915005882381F08D3380F426E0B9
:10457000829FC00111246DE370E00E94C631862F36
:10458000672B19F005C083E0089581E0089586E067
:1045900008958091050680FD14C081FD14C082FD40
:1045A00016C080915005882381F08C3380F426E476
:1045B000829FC00111246CE370E00E94C631862FF7
:1045C000089581E1089583E2089585E0089586E4E1
:1045D0000895803F21F40E94C922819504C0813F43
:1045E00029F40E94C92280934D050895823F21F449
:1045F0000E94C922819504C0833F29F40E94C922E8
:1046000080934C050895893F19F40E94A92205C0A2
:104610008A3F31F40E94A922819580934E05089526
:104620008B3F21F40E94A922819504C08C3F29F47C
:104630000E94A92280934F050895843F21F4809120
:104640004B05816017C0853F21F480914B05826046
:1046500011C0863F21F480914B0584600BC0873FD9
:1046600021F480914B05886005C0883F31F480912A
:104670004B05806180934B0508958D3F21F4809117
:10468000050681600BC08E3F21F480910506826093
:1046900005C08F3F29F4809105068460809305064C
:1046A000089578941F920F920FB60F9211248F9352
:1046B0009F93AF93BF938091010690910206A091C2
:1046C0000306B09104060196A11DB11D8093010659
:1046D00090930206A0930306B0930406BF91AF9196
:1046E0009F918F910F900FBE0F901F901895CF92B2
:1046F000DF92EF92FF920F931F932FB7F8944091A0
:1047000001065091020660910306709104062FBFC6
:104710006A017B01EE24FF248C0120E030E0C0160A
:10472000D106E206F30610F4415051099A01281B04
:10473000390BC9011F910F91FF90EF90DF90CF903F
:1047400008952FB7F8948091010690910206A091E8
:104750000306B09104062FBF0895E0913905F0914A
:104760003A05309749F082E080934A050480F5814C
:10477000E02D8AE495E009950E94A12390935205CB
:104780008093510508951F920F920FB60F92112436
:104790008F939F93AF93BF9380913B05811113C07B
:1047A0008091010690910206A0910306B091040643
:1047B0004196A11DB11D8093010690930206A0931E
:1047C0000306B0930406BF91AF919F918F910F9014
:1047D0000FBE0F901F901895209115012223C9F04C
:1047E0002091370527FF15C0262F2695269526955B
:1047F0002E31C8F4FC01E20FF11D677081E090E0FA
:1048000001C0880F6A95EAF7809592818923828397
:104810000895FC0106962281621301C0128231962E
:10482000E817F907C1F70895209115012223C1F077
:104830002091370527FF14C0262F2695269526950B
:104840002E3130F5FC01E20FF11D677081E090E040
:1048500001C0880F6A95EAF79281892B82830895B7
:10486000FC0132962FEF30E04191641789F02F3F21
:1048700019F4411101C0232F3F5F3630A9F72F3FB4
:1048800039F0FC01E20FF11D27FDFA9562830895CE
:104890000895CF9384E090E00E94CE2FC82F81E24C
:1048A00090E00E94CE2F2C2F30E0A901582BCA0196
:1048B000CF9108956FEE7EEF80E090E00E9410307F
:1048C00060E082E090E00E94F22F60E083E090E000
:1048D0000E94F22F1092FD051092FE051092FF0526
:1048E0001092000660E084E090E00E94F22F60E009
:1048F00081E290E00E94F22F60E085E090E00E946B
:10490000F22F60E086E090E00E94F22F6FEF87E0E8
:1049100090E00E94F22F40E050E0BA0188E090E081
:104920000E94043060E08DE090E00E94F22F40E0B1
:1049300050E0BA0188E190E00E94043060E087E135
:1049400090E00E94F22F40E050E0BA018CE190E04C
:104950000E94043060E080E290E00E94F22F10920A
:10496000250510922605109227051092280584E04F
:104970008061809325054091250550912605609121
:104980002705709128058FE090E00E94043040E0F8
:1049900050E0BA0183E190E00C940430CF92DF92B2
:1049A000EF92FF926C01EE24FF24C114D104E104C4
:1049B000F10421F0C701B60120E101C020E0C72EBB
:1049C000D82EE92EFF24C114D104E104F10419F01A
:1049D000285FC701B6016B017C0154E0F694E794AF
:1049E000D794C7945A95D1F7C114D104E104F104C6
:1049F00019F02C5FC701B6016B017C0142E0F6940F
:104A0000E794D794C7944A95D1F7C114D104E1042F
:104A1000F10419F02E5FC701B601DC01CB01B69598
:104A2000A79597958795892B8A2B8B2B09F02F5F5C
:104A3000822FFF90EF90DF90CF9008958091FC053A
:104A400081111092FC0508959091FB058091FA0563
:104A5000892B2091F905982F922B909365058091D1
:104A6000FC058823D9F0892B809365058091150179
:104A7000882331F08091370587FF02C08EE101C0A5
:104A800086E0E7E6F5E090E0815028F021912223CE
:104A9000D9F39F5FF9CF91110E941E25E09139054E
:104AA000F0913A053097A9F080911501882359F0CB
:104AB0008091370587FF07C0809165058093660563
:104AC00085E0809365050280F381E02D85E695E021
:104AD00009940895BF92CF92DF92EF92FF920F93C5
:104AE0001F93CF93DF938C01C090F405D090F50510
:104AF000E090F605F090F7058091FD059091FE0598
:104B0000A091FF05B0910006C82AD92AEA2AFB2AFB
:104B1000CFE1D0E0D701C6010C2E04C0B695A79511
:104B2000979587950A94D2F780FD04C0219790F756
:104B3000B12C07C0BC2EB8018C2F0E943E0F0197EC
:104B4000A9F38B2DDF91CF911F910F91FF90EF90E3
:104B5000DF90CF90BF900895CF93DF93EC010E9438
:104B60006A25BE010E943E0FDF91CF910895292F43
:104B7000220F920F990F890F682F6695669566959B
:104B8000982F977085E0689FB001112440E050E0B5
:104B900080E0FB01E40FF51FE354FA4F208130E081
:104BA000092E02C0369527950A94E2F72170332723
:104BB000042E01C0220F0A94EAF7822B4F5F5F4F49
:104BC0004530510531F70895292F220F920F990F83
:104BD000890FE82FE695E695E695877051E001C0CC
:104BE000550F8A95EAF785E0E89FF0011124E35418
:104BF000FA4F20E030E070E04081CB01022E02C08D
:104C0000969587950A94E2F781708195842785238C
:104C1000842781932F5F3F4F2530310569F7089531
:104C20000E94EC106093F4057093F5058093F605EF
:104C30009093F7050C94802D0F931F9341E050E063
:104C400060E070E004C0440F551F661F771F8A950F
:104C5000D2F740955095609570958091F4059091AC
:104C6000F505A091F605B091F7058A019B0108238F
:104C700019232A233B23C901B8011F910F910C94DA
:104C800010262091F805809582238093F805982FAF
:104C9000977079F430E0482F082E000C550B24173C
:104CA000350739F08595859585950E941C261092CB
:104CB000F80508950F931F9341E050E060E070E025
:104CC00004C0440F551F661F771F8A95D2F7809145
:104CD000F4059091F505A091F605B091F7058A01CC
:104CE0009B01082B192B2A2B3B2BC901B8011F91C3
:104CF0000F910C9410266093FD057093FE05809330
:104D0000FF05909300060C94802D8091BC05909136
:104D10008B05891719F08F5F8770FBCF08959F92DD
:104D2000AF92BF92CF92DF92EF92FF920F931F93B9
:104D3000CF93DF936C0180911601C82FCC0FCC0F5D
:104D4000C80F15E01C0F113308F010E36091400606
:104D50006695669580913406909135060E94821B77
:104D6000D82F80E48D0F0E94071B90E8F92EF80ED3
:104D70008D2F0E94071B20E8922E980EC11700F578
:104D8000AC2EB12CF501E05CFC4F908180911701B5
:104D90008923A1F060913D0670913E0680913F0607
:104DA000ED2E0C2F292D4F2DF60109950E948C1BFD
:104DB000462F282F672FC5010E94441ACF5FDECFF0
:104DC00081E0103308F080E0DF91CF911F910F91C7
:104DD000FF90EF90DF90CF90BF90AF909F9008959D
:104DE0006F927F928F929F92AF92BF92CF92DF92FB
:104DF000EF920F931F93CF93DF933C0180911601A5
:104E0000C82FCC0FCC0FC80FD5E0DC0FD13308F082
:104E1000D0E3609140066695809134069091350606
:104E20000E94821B182FCD1708F044C08C2E912CA5
:104E3000F401E05CFC4F9081809117018923C1F15E
:104E4000F401EE0FFF1FE052FD4FC080D12C80E730
:104E5000C81AD108F401EE0FFF1FEF51FD4FA080DB
:104E6000B12CE0E2AE1AB108CC9C9001CD9C300D83
:104E7000300D1124AA9CC001AB9C900D900D112403
:104E8000820F931F0E94281B082F60913D0670918E
:104E90003E0680913F06E12E9501A601F30109959A
:104EA0000E948C1B462F282F672FC4010E94441A92
:104EB000CF5FB9CF81E0D03308F080E0DF91CF91B0
:104EC0001F910F91EF90DF90CF90BF90AF909F9088
:104ED0008F907F906F900895CF92DF92EF92FF9224
:104EE0000F931F93CF93DF936C0180911601C82F0E
:104EF000CC0FCC0FC80FD5E0DC0FD13308F0D0E3D6
:104F000060914006669580913406909135060E9426
:104F1000821B182FCD1778F5EC2EF12CF701E05CF1
:104F2000FC4F908180911701892319F1F701EE0F51
:104F3000FF1FEF51FD4F208130E020523109F70172
:104F4000EE0FFF1FE052FD4F408150E040575109E6
:104F500060913D0670913E0680913F06012FF6015B
:104F600009950E948C1B462F282F672FC7010E948E
:104F7000441ACF5FCFCF81E0D03308F080E0DF91DB
:104F8000CF911F910F91FF90EF90DF90CF900895F8
:104F9000DF92EF92FF920F931F93CF93DF938C01D9
:104FA00080911601C82FCC0FCC0FC80FD5E0DC0FB5
:104FB000D13308F0D0E36091400666956695809104
:104FC0003406909135060E94821BD82ECD17F0F43E
:104FD000EC2EF12CF701E05CFC4F908180911701E1
:104FE000892391F060913D0670913E0680913F06C5
:104FF0002D2D4C2FF80109950E948C1B462F282F30
:10500000672FC7010E94441ACF5FE0CF81E0D03301
:1050100008F080E0DF91CF911F910F91FF90EF900A
:10502000DF900895EF92FF920F931F93CF93DF933A
:105030007C018B010E94F41C811119C0E70101154C
:105040001105A1F08091E80085FD0AC08091E8007B
:105050008E778093E8000E94F41C882381F307C0B8
:1050600089918093F10001501109E9CF80E0DF912F
:10507000CF911F910F91FF90EF9008951F93CF93C1
:10508000DF93CDB7DEB7AA970FB6F894DEBF0FBE99
:10509000CDBFECE2F6E08091F100819326E0E433AD
:1050A000F207C9F780912D06833009F460C030F40F
:1050B000813071F0823009F49AC0B1C08A3009F4AD
:1050C00086C08B3009F46BC0893009F0A8C020C0BD
:1050D00080912C06813A09F0A2C08091E800877F78
:1050E0008093E8008091300690913106892B21F45D
:1050F00060E288E096E003C060E080E090E070E06D
:105100000E94B71E8091E8008B778093E80087C0EB
:1051100080912C06813209F082C0809130069091F6
:105120003106029708F07BC08091E800877F80936A
:10513000E8008091E80082FD05C080912A06811177
:10514000F8CF6DC02091F3008091F20090E0922B97
:10515000029729F48091F1008B7F813021F48091B6
:10516000F100809307068091E8008B7754C080910E
:105170002C06813A09F053C0809130069091310697
:10518000892B09F04CC08091E800877F8093E8006C
:105190008091E80080FFFCCF8091150137C080919D
:1051A0002C068132E1F58091300690913106892BF1
:1051B000B1F58091E800877F8093E8000E94271D69
:1051C00080912E06809315010E949B2D28C080910E
:1051D0002C06813221F58091E800877F8093E800DA
:1051E0000E94271D80912F068093060618C080918B
:1051F0002C06813AA1F48091E800877F8093E80033
:105200008091E80080FFFCCF809106068093F1003A
:105210008091E8008E778093E8000E94271D80919E
:10522000E80083FFD8C180912C0690912D06492F6C
:1052300050E04A30510508F0CEC1FA01E656FF4F62
:105240000C94DA31803821F0823809F0C4C108C0EA
:105250008091280690912906992389F082600FC0D9
:10526000809130068F70873008F0B5C18093E900D7
:105270008091EB0085FB882780F91092E9009091DE
:10528000E800977F9093E8008093F1001092F1007E
:1052900071C1282F2D7F09F09EC1882319F082301B
:1052A00061F099C180912E06813009F094C193304C
:1052B00009F080E0809329062EC080912E0681118E
:1052C0002AC0809130068F702FEF280F263008F00B
:1052D00082C18093E9002091EB0020FF1CC0933035
:1052E00021F48091EB00806214C09091EB009061FA
:1052F0009093EB0021E030E0A90102C0440F551F5C
:105300008A95E2F74093EA001092EA008091EB0060
:1053100088608093EB001092E9008091E800877F1D
:105320002CC1811158C110912E061F778091E30086
:105330008078812B8093E3008091E800877F8093C1
:10534000E8000E94271D8091E80080FFFCCF80913B
:10535000E30080688093E300111102C082E001C085
:1053600083E080932A0637C18058823008F033C129
:1053700080912E0690912F068C3D53E0950779F58C
:1053800083E08A838AE289834FB7F894DE0113961B
:1053900020E03EE051E2E32FF0E050935700E4912B
:1053A00020FF03C0E295EF703F5FEF708E2F90E01B
:1053B000EA3010F0C79601C0C0968D939D932F5F81
:1053C000243149F74FBF8091E800877F8093E80040
:1053D0006AE270E0CE0101960E94B71EBAC0409109
:1053E000300650913106292F332723303105B1F093
:1053F00068F42130310509F4FDC02230310509F08F
:10540000EAC08BE390E0ECE5FBE050C021323105CF
:1054100081F12232310509F439C0DDC0992781308C
:105420009105B9F070F082309105D9F0039709F039
:10543000D2C0E9EAFBE0E4918E2F90E0E9EAFBE0DC
:1054400032C0E1EDFBE0E4918E2F90E0E1EDFBE076
:105450002AC0E7ECFBE0E4918E2F90E0E7ECFBE064
:1054600022C0EFEAFBE0E4918E2F90E0EFEAFBE050
:105470001AC04115510509F4C2C04130510509F067
:10548000AAC089E090E0E7E8FBE010C041155105B3
:1054900009F4BAC04130510509F09DC080EC90E09C
:1054A000ECE5FAE003C0009709F495C02091E8000C
:1054B000277F2093E800209132063091330682172F
:1054C000930708F49C0140E02115310589F1809192
:1054D0002A06882309F43DC08530D9F18091E8007F
:1054E00083FD37C08091E80082FD2FC08091E800E5
:1054F00080FFEACF4091F3008091F20090E0942B7E
:105500002115310559F08830910540F444914093BC
:10551000F1003196215031090196F2CF41E0089710
:1055200009F040E08091E8008E778093E800CCCFCE
:105530004111CDCF0AC080912A06882351F08530D1
:1055400041F08091E80083FD04C08091E80082FF73
:10555000F2CF8091E8008B778093E8003CC08038E0
:10556000D1F58091E800877F8093E80080912B0639
:105570008093F1008091E8008E778093E8000E948C
:10558000271D29C0811127C080912E0690912F06DA
:105590009927029704F58091E800877F8093E800BF
:1055A00010912E0610932B060E94271D111106C084
:1055B0008091E30087FD02C081E001C084E0809318
:1055C0002A0642E061EC81E00E94461D42E261EC65
:1055D00082E00E94461D8091E80083FF1AC08091FE
:1055E000E800877F8093E8008091EB0080628093E1
:1055F000EB000FC082E190E0E7E9FBE057CF89E0E4
:1056000090E0EEE6FBE052CF80E490E0ECE1FBE0DE
:105610004DCFAA960FB6F894DEBF0FBECDBFDF9177
:10562000CF911F910895CF9380918A0582958F70B5
:1056300009F05FC080918705882309F45AC08091E2
:10564000BC05B0918B0570918505A09186054091B0
:1056500088055091890591E07F3F09F090E0692F1E
:10566000C6E08B1709F445C04115510521F0AF3F45
:1056700021F020E003C021E001C0262F90E020FDB2
:1056800035C0C89FF001C99FF00D1124E457FA4FAF
:1056900021812A132BC02081271328C022812111A8
:1056A00025C0238134812417350710F42150310996
:1056B000241B350B233B3105C8F420918A052F703C
:1056C000206120938A0526E0289FF001299FF00D94
:1056D0001124EF56FA4F80818F708061808385E8B6
:1056E00095E00E940A06CF910C948526019687705A
:1056F000B8CFCF9108950E94AC25292F2F70E92FA4
:10570000E295EF704E2F50E0FA013297EE30F1053E
:10571000B8F4EC55FF4F0C94DA31803F99F018F44F
:10572000883E70F40FC0843F59F40CC0883E50F09E
:10573000813F31F407C0822F86958695869508951E
:1057400080E0089581E00895AF92BF92CF92DF92FA
:10575000EF92FF920F931F93CF93DF93CDB7DEB7F6
:1057600061970FB6F894DEBF0FBECDBF8C0185E008
:10577000F801DE011D9601900D928A95E1F7D8019E
:105780003C9111962C9111971296EC9050918505B1
:10579000609186058091880590918905009731F088
:1057A0006F3F31F441E05F3F19F403C041E001C0B5
:1057B00040E0B42FB170BB2E40FD43C1F801C3805F
:1057C000D480A0908705AA2009F4E2C040918A0500
:1057D000C816D90628F0D601A81BB90BCD0104C004
:1057E000809590958C0D9D1DFF24F394833B91052E
:1057F00048F0F12C407F09F090C085E895E00E94C8
:105800000A0617C1842F807F09F052C0621312C0AC
:10581000531310C0FE2CE1100DC04F704061409337
:105820008A0585E895E00E940A0680918A05F801BC
:10583000858354C1CD2831F02F3F31F481E03F3FC3
:1058400019F403C081E001C080E080FD03C081E065
:105850008E2502C080E090E0F82FF170FF2E80FFCF
:105860001CC08091BC0540918B0556E0841709F45B
:1058700012C190E0589FF001599FF00D1124E45798
:10588000FA4F6181261306C06081361303C062811E
:10589000E61203C001968770E9CFFE2CEE2009F4D2
:1058A0001DC180918A05816080938A05F12C16C103
:1058B000621308C0531306C0E11004C080918A052A
:1058C000F80199C03D872E878D859E850E947B2B90
:1058D000882369F1EE2059F120918A05822F829563
:1058E0008F7090E0029774F0809185059091860505
:1058F00098878F831986DB86CA862C87CE01079608
:105900000E940A0686E0F801A5E8B5E001900D9234
:105910008A95E1F70E94132B0DC0621771F03D8745
:105920002E878D859E850E947B2B81111AC0C80110
:105930000E940A06FF24F394D1C05313F0CFE11064
:10594000EECF80918A05F8018583C8010E940A067E
:1059500086E0E5E8F5E0DF011D928A95E9F7FA2C8B
:10596000BDC0EE2021F320918A05822F82958F7091
:1059700090E002973CF280918505909186059A838C
:1059800089831B82DD82CC822E83CE010196B8CF23
:10599000C816D90638F0C81AD90AB3EBCB16D10409
:1059A00050F007C0809590958C0D9D1D833B91050F
:1059B00010F0F12C3EC0FE2CEE2009F4B8CF62139B
:1059C00027C0531325C020918A0520FD18C0822FBF
:1059D00082958F70482F50E04115510581F0F801F4
:1059E00025834F30510541F08F5F982F9295907F1E
:1059F000822F8F70892B8583C8010E940A0686E05A
:105A0000F801A5E8B5E001900D928A95E1F766C02E
:105A10003D872E878D859E850E947B2B811172CFBD
:105A200080918A05816080938A05C8010E940A06D8
:105A300055C0E5E8F5E086E0DF011D928A95E9F7BB
:105A40004DC0EE2009F473CF3D872E878D859E854E
:105A50000E947B2BF82E882309F469CF86E0F80199
:105A6000A5E8B5E001900D928A95E1F78091850552
:105A7000909186050E94AC2592959F70963041F4D6
:105A80008091420691E089278093420690934106D7
:105A90000E94132B23C03D872E878D859E850E94F3
:105AA000AC25292F22952F70223028F49F7039F0D1
:105AB000811105C00BC0243028F49F7049F4805E2A
:105AC000883020F0C8010E940A06BF2CFB2C06C0BB
:105AD000D80115969C91907F91F7F8CF8F2D619604
